:020000040000FA
:06000000020A6D0201FA84
:03002B00020809BF
:030053000201297E
:1000830002018B01010020FD00020612FFFF02089E
:10009300C80E000000017111771100007D110000EE
:1000A300000000000000000000001020202020209D
:1000B30020202020202020202020200108040100CF
:1000C300000002E880029A800101010400130F007E
:1000D3000000FFFF6B0F6400B801A0BB0D00A0BBC5
:1000E3000D000202000800000502070401051E02BC
:1000F300051E020A0A01080803B80B02803E01022A
:10010300FEFFE8030A050001FFFF020A1401E005F0
:10011300030101FF7C2200000000502100000000C9
:10012300FF000000FF00C0E074F1120479A2AFE405
:1001330033F509D2AF85A708AFA1EF5508FE7410B8
:100143005E6006120BBF75A1EF74085E6008120BA8
:10015300C575A1F78024EFA2E092F0E508A2E08242
:10016300F05017906198E0F8900372E0C398A2D220
:1001730065D0335002E8F075A1FE751A00E509A2B7
:10018300E092AF7F020204D8C0E074F2120479A2B5
:10019300AFE433FED2AF9061A4E0F8759B00E59124
:1001A30058540860087591F7120C0D8023E5915897
:1001B300541060087591EF120C138014E591A2E0BE
:1001C30092F0E8A2E082F05007E0C2E0F0120D697D
:1001D3009061A3E0F8E5E9585404600E120D3F75F1
:1001E300E9FB906193E0A2E640F2751A00EEA2E00B
:1001F30092AF7F010204D8C0E074F2120479A2AF77
:10020300E433FED2AF9061A5E0F8E5BF5854046033
:100213000675BFFB120D8180D1C3E498F8E499F908
:1002230012025D8026C3E49AFAE49BFBE920E7E926
:1002330012025DE498F8E499F922C3E498F8E4998A
:10024300F912025DE498F8E499F9C3E49AFAE49B9D
:10025300FB22EB20E7CFE920E7E0B90010BB000861
:10026300E88AF084F8AAF022E4FBC8FA22EB7022B1
:100273007B10C833C8C933C9335007C39AC3DBF2F1
:1002830080069A50012ADBEAC833F4C8C933F4C99B
:10029300FA2275F008E4C833C8C933C933C99AC907
:1002A3009B5004C92AC93BD5F0ECFBC833F4C8E41E
:1002B300C9FA22080808EAC0E0EBC0E086F0E7A428
:1002C300FA180986F0E7A42AFA180986F0E7A42A9F
:1002D300FA180986F0E7A42AFA1986F0E7A4FBE5E1
:1002E300F02AFA190886F0E7A42BFBE5F03AFA198D
:1002F3000886F0E7A42BFBE5F03AFA18180986F014
:10030300E7A4C5F02BFBE43AFA1908E7C5F0C6A445
:1003130026F6E5F03BFBE43AFA1886F0E7A4F6E5A7
:10032300F00826F6E43B08F6E43A08F6D0E0FBD002
:10033300E0FA22E4CFC0E0E4CEC0E0E4CDC0E0E4E4
:10034300CCC0E075F020E626F608E633F608E6337F
:10035300F608E633F6181818EC33FCED33FDEE33EC
:10036300FEEF33FFC3EC9709ED9709EE9709EF977B
:10037300191919400FFFEC97FC09ED97FD09EE974A
:10038300FE191906D5F0BFECF709EDF709EEF709E9
:10039300EFF7191919D0E0FCD0E0FDD0E0FED0E072
:1003A300FF222518C582C0E0E51934FFC583C0E0EC
:1003B300E518C3958224F810AF0885831985821840
:1003C3008008858319858218D2AFCEF0A3E520F08B
:1003D300A37808E608F0A3DEFAEFF0A3E58124FA98
:1003E300F8E608F0A3E608F0A3E608F0A30808E699
:1003F30008F0A3E608F0A315811581D0E0FED0E054
:10040300F8158115811581E8C0E0EEC0E022120ADB
:10041300DBB90003020463E490030178DF790F8002
:1004230002F0A3D8FCD9FA781A9000867A01BA00B0
:10043300028007E493A3F608DAF97ADF7B119000D0
:100443008778A379018015E493A3AD82AE838A8272
:100453008B83F0A3AA82AB838D828E83D8E9D9E7FD
:100463007582AE7583F074031207EB7582D37583BF
:100473001E74001207EBC0D02518C582C0E0E51931
:1004830034FFC583C0E0E518C3958224F310AF0899
:100493008583198582188008858319858218D2AFD0
:1004A300C8F0A3E9F0A3EAF0A3EBF0A37908E70906
:1004B300F0A3D8FAECF0A3EDF0A3EEF0A3EFF0A3D2
:1004C300D0E0F0A3D0E0F0A3D0E0F0A3E520F0A3C8
:1004D300E5F0F0A322851983851882E0C0E0A3E04C
:1004E300F9A3E0FAA3E0FBA37808E0F608A3DFFA98
:1004F300E0FCA3E0FDA3E0FEA3E0FFA3E0C0E0A3D4
:10050300E0C0E0A3E0F5D0A3E0F520A3E0A3F5F07D
:1005130010AF088583198582188008858319858221
:1005230018D2AFD082D083D0E0F8D0E03275F0108B
:100533008E218F22858226858325851882851983BE
:10054300E0CEA3E0CF852682852583EBC9EAC8EDFB
:10055300CBECCAC3E833C8E933C9EA33CAEB33CBBC
:10056300C3EA9EF524EB9FF523B35004AB23AA24DF
:10057300EC33CCED33CDD5F0DAAE21AF2222D083EC
:10058300D082ECC0E0EDC0E0E493A3FCE493A3FDD0
:10059300ED4C600D120659EC24FFFCED34FFFD8099
:1005A300EFE493A3FCE493A3FDED4C600D1206F678
:1005B300EC24FFFCED34FFFD80EFD0E0FDD0E0FC48
:1005C300E493A3C0E0E493C0E022851983851882F5
:1005D300E0A3FEE0A3F5207808E0A3F608DFFAE045
:1005E300A3FFE0A3C0E0E0A3C0E0E0A3C0E0E0A37A
:1005F300C0E0E0A3C0E010AF0885821885831980AE
:1006030008858218858319D2AFD083D0820207F17F
:10061300D083D082E9C0E0E493A3C386F0C5F0950C
:10062300F0F908E493A386F0C5F095F0700BE4931A
:10063300A3C3994005E9048002A3E475F002A4254D
:1006430082F582E5F03583F583D0E0F9E493A3C026
:10065300E0E493C0E022C0E0C3E4939608740193FE
:100663009618400FE4936670080874019366187037
:10067300007019A3A3C3E49396087401939618A377
:10068300A3400DD0E0D0E0D0E00205BDA3A3A3A317
:10069300A3A3D0E0227404800474028000CCC0E0E1
:1006A300EDC0E0E518C39CCCAD1950011D10AF0699
:1006B3008C188D1980068C188D19D2AF12076DD046
:1006C300E0FDD0E0FC2274028000CCC0E0EDC0E08D
:1006D300E518C39CCCAD1950011D10AF068C188DC5
:1006E3001980068C188D19D2AF12074BD0E0FDD0BC
:1006F300E0FC22C0E0C0F088F0E493667008087460
:10070300019366187000A8F0A3A3700BD0F0D0E09B
:10071300D0E0D0E00205BDA3A3D0F0D0E022D08387
:10072300D082CCC0E0E493A360061207CC1470FA25
:10073300E493A360061208F01470FAD0E0FCE4938B
:10074300A3C0E0E493C0E022CAC0E0E493A3C5825F
:10075300CCC582C583CDC583F0A3C582CCC582C574
:1007630083CDC583DAE5D0E0CA22CAC0E0E0A3C5E1
:1007730082CCC582C583CDC583F0A3C582CCC58297
:10078300C583CDC583DAE6D0E0CA2270090808081C
:10079300226016181818C6C333C608C633C608C65F
:1007A30033C608C633C6D5E0EA22C008C3E096F5CF
:1007B3000808A3E096420808A3E096420808A3E0CD
:1007C3009645087001D3D00822C0E0E493A3D39CDC
:1007D3005010E493A3C39C400AD0E0D0E0D0E002E1
:1007E300073EA3A3A3D0E022C09FF59FE473D09F4D
:1007F30022D083D082C09FE493C0E0740193C0E011
:10080300740293F59F22C0E0C0D0E8C0E0A8A8D24C
:10081300AFC2C7751A00E8A2E792AFD0E0F8D0D014
:10082300D0E03200C0D0251810AF08F518500C05E1
:10083300198008F51850020519D2AFD0D022251817
:10084300F58210AF08F518400C15198008F518400B
:10085300021519D2AF851983227404800A740380A8
:1008630006740280027401C0E0F404120841D0E06F
:10087300120AAA22BB0102E722C082C08389828AAC
:1008830083BB0003E08002E493D083D0822260160E
:10089300080808C6C313C618C613C618C613C61855
:1008A300C613C6D5E0EA22C3E0C696F608A3E0C69F
:1008B30096F608A3E0C696F608A3E0C696F62225A8
:1008C30018F8E43519F9222518FAE43519FB22251D
:1008D30018FCE43519FD22251810AF08F518400C53
:1008E30015198008F51840021519D2AF22C0E0E4AB
:1008F30093A36C7009D0E0D0E0D0E002073EA3A33D
:10090300D0E022C3E09608A3E09608A3E09608A3EC
:10091300E096A2D265D03322E066701008A3E066A9
:10092300700A08A3E066700408A3E06622E7667015
:10093300100809E766700A0809E76670040809E702
:100943006622C3E096F008A3E096F008A3E096F0D1
:1009530008A3E096F022C3E697F60809E697F6089F
:1009630009E697F60809E697F622C3E49396087416
:100973000193960874029396087403939622E627CC
:10098300F60809E637F60809E637F60809E637F602
:1009930022700422600D18C6C333C608C633C6D5F9
:1009A300E0F41822E493F608740193F608740293B2
:1009B300F608740393F622E657F60809E657F60895
:1009C30009E657F60809E657F622E056F608A3E0CB
:1009D30056F608A3E056F608A3E056F622E056F0D2
:1009E30008A3E056F008A3E056F008A3E056F0226F
:1009F300E026F608A3E036F608A3E036F608A3E0FF
:100A030036F622E647F60809E647F60809E647F60A
:100A13000809E647F622E026F008A3E036F008A32B
:100A2300E036F008A3E036F022E4C396F608E49635
:100A3300F608E496F608E496F622C6F4C608C6F469
:100A4300C608C6F4C608C6F4C622C3E7960809E773
:100A5300960809E7960809E79622C3E09608A3E0FB
:100A63009608A3E09608A3E0962275D00075813F0F
:100A730075180175190300020411E6F008A3E6F0E6
:100A830008A3E6F008A3E6F022600C08C6C313C669
:100A930018C613C6D5E0F422E0F608A3E0F608A3CF
:100AA300E0F608A3E0F622CAC0E0E6F0A308DAFA0B
:100AB300D0E0FA22E8F0A3E9F0A3EAF0A3EBF022F6
:100AC300E0F8A3E0F9A3E0FAA3E0FB22E0FAA3E055
:100AD300FBA3E0FCA3E0FD22E5C754F84401F5C7FE
:100AE3007901222518F582E43519F58322C2AF7501
:100AF300D69F020000221207F415F6031207F433FF
:100B0300F6031207F46BD4031207F479D403120724
:100B1300F4F2D4031207F4C6D5031207F498D703EB
:100B23001207F4FDD7031207F450D8031207F4F8A1
:100B33007F001207F456EC031207F48EEC0312073E
:100B4300F4D0ED031207F454EE031207F457EE0347
:100B53001207F47DF9021207F4A9F9021207F41A35
:100B6300FC021207F45AFC021207F49AFC02120761
:100B7300F4AEFC021207F4C7FC021207F4B8FD023C
:100B83001207F45DFE021207F471FE021207F485E8
:100B9300FE021207F4A9FE021207F4C2FE021207B4
:100BA300F4F4FE021207F424FF021207F451FF02C9
:100BB3001207F45BFF021207F4BDFF021207F4CC25
:100BC300FF021207F4D6FF021207F4E3FF02120733
:100BD300F48AE7031207F4AAE7031207F4E9E70329
:100BE3001207F404E8031207F423E8031207F48955
:100BF300E8031207F492E8031207F4EFE80312077D
:100C0300F413E9031207F4D4E9031207F4E1E90347
:100C13001207F4F2E9031207F4B6FF011207F4CE48
:100C2300FF011207F4FAFF011207F4FDC6031207CE
:100C3300F457C8031207F465C8031207F478C8030E
:100C43001207F48DC8031207F4A2C8031207F4B500
:100C5300C8031207F429C9031207F48EC903120744
:100C6300F416CA031207F492CA031207F456CB030D
:100C73001207F466CB031207F475CB031207F412C1
:100C8300FB031207F436FB031207F45EFB031207A0
:100C9300F486FB031207F48BEE031207F4B2EE03A0
:100CA3001207F4D0EE031207F443EF031207F4B76D
:100CB300E4031207F4D0E4031207F4DCE40312079D
:100CC300F4F0E4031207F40EE5031207F418E50346
:100CD3001207F422E5031207F435E5031207F4BB08
:100CE300E5031207F430E6031207F45FE603120785
:100CF300F4ADE6031207F4FCE6031207F417E70367
:100D03001207F421E7031207F432E7031207F4751D
:100D1300E7031207F468FD031207F4B3FD03120798
:100D2300F464B6031207F48EB6031207F4ABB603EA
:100D33001207F4BEB6031207F4D4B6031207F43253
:100D4300B7031207F46AB7031207F45EBB03120773
:100D5300F4A3BC031207F4D6BC031207F439BD0392
:100D63001207F499BE031207F4C1BE031207F4D6A7
:100D7300BE031207F4E6BE031207F42ABF031207E9
:100D8300F485BF031207F495BF031207F468F60353
:100D93001207F482F6031207F4AAF6031207F4C348
:100DA300F6031207F4E7F6031207F405F703120735
:100DB300F41CF7031207F44AF7031207F465F70369
:100DC3001207F459FA031207F49DFA031207F42FDA
:100DD300FC011207F43FFC011207F444FD01120762
:100DE300F476FD011207F49CFD011207F4BFFD0127
:100DF3001207F4D6FD011207F410FE011207F47571
:100E0300FE011207F4B7FE011207F4F6FE01120702
:100E1300F427FF011207F45EFF011207F4A0F203A7
:100E23001207F4B2F2031207F4C5F3031207F4C86E
:100E3300F3031207F44AFC031207F487FC031207B7
:100E4300F4C9FC031207F4D9FC031207F4C5BF036A
:100E53001207F4FFBF031207F468C0031207F485F7
:100E6300C0031207F427C1031207F430C1031207AA
:100E7300F475C1031207F49EC1031207F4ABC10357
:100E83001207F41CC2031207F4A7C2031207F4F5F6
:100E9300C2031207F433C3031207F498C303120700
:100EA300F4BBC3031207F432C4031207F489C40367
:100EB3001207F4C4C4031207F4F9C4031207F40BB2
:100EC300C5031207F41DC5031207F43CC50312073B
:100ED300F445C5031207F405C6031207F451C6030C
:100EE3001207F48FC6031207F4F5F3031207F42075
:100EF300EA031207F456EA031207F49EEA03120701
:100F0300F4F7EB031207F40080031207F4248103C0
:100F13001207F45E81031207F40883031207F43205
:100F230083031207F4A785031207F4E78503120767
:100F3300F47D87031207F41A88031207F46C8803FD
:100F43001207F40F89031207F44789031207F48980
:100F530089031207F4F88A031207F4468C03120775
:100F6300F4778E031207F4A58E031207F4CC8E03D5
:100F73001207F4D58E031207F4258F031207F4B773
:100F83008F031207F4E692031207F469930312071F
:100F9300F4ABFB031207F4C1FB031207F4CBFB030F
:100FA3001207F41FFC031207F49C7F001207F4AE30
:100FB300CB031207F4C4CB031207F465CC03120767
:100FC300F4A4CC031207F4C1CC031207F4F2CC034C
:100FD3001207F43FCD031207F472CD031207F4ADE9
:100FE300CD031207F4A8CF031207F410D00312079E
:100FF300F49AF8031207F4F9F8031207F437F90324
:101003001207F478F9031207F40080021207F40CB4
:1010130080021207F46E80021207F478800212072E
:10102300F40B81021207F44781021207F40A8202C9
:101033001207F45A82021207F4E982021207F46BD0
:1010430083021207F41685021207F4E586021207DB
:10105300F44C88021207F4E988021207F4918D0216
:101063001207F47F8E021207F41D8F021207F44257
:101073008F021207F4DE8F021207F4F38F021207B6
:10108300F41790021207F47D90021207F49A90026B
:101093001207F4C490021207F44192021207F46299
:1010A30092021207F4E892021207F48E93021207D7
:1010B300F4D593021207F44894021207F4D494026D
:1010C3001207F43895021207F49895021207F42ECA
:1010D30096021207F4A996021207F4DC960212078D
:1010E300F43E97021207F4A098021207F410990233
:1010F3001207F4BE99021207F4149B021207F4AA12
:101103009B021207F4169C021207F4599E0212075F
:10111300F4E59F021207F410A0021207F4F3A102F0
:101123001207F498A3021207F4A1A4021207F463AE
:10113300D8031207F41DD9031207F483D903120746
:10114300F4A4D9031207F476DA031207F4BFFD03FC
:101153001207F403FE031207F4DCDB031207F48027
:10116300DC031207F444DE031207F469DE031207FB
:10117300F4BADE031207F4C7DE031207F4E3DE0357
:101183001207F43FCC021207F494CC021207F41AAC
:10119300CD021207F42ACE021207F477CE02120709
:1011A300F434CF021207F44BCF021207F49DCF029F
:1011B3001207F4DACF021207F4EDCF021207F44359
:1011C300D0021207F4D3D2021207F46AD302120731
:1011D300F494D3021207F4CCD3021207F402D6021A
:1011E3001207F448D6021207F492D6021207F466E5
:1011F300D7021207F4A7D7021207F4CAD7021207BD
:10120300F411D8021207F427D8021207F4A8D8025F
:101213001207F435D9021207F48FD9021207F4CA60
:10122300D9021207F4E0DA021207F465DD021207AD
:10123300F49ADE021207F4D5DE021207F4A2DF02EB
:101243001207F4ECDF021207F4EFDF021207F4F8DF
:10125300DF021207F40AE0021207F48BE00212071E
:10126300F4C1E0021207F4EDE0021207F414E10204
:101273001207F438E1021207F4CFE1021207F4E88F
:10128300E1021207F41BE2021207F43BE202120727
:10129300F478E2021207F4AFE2021207F4AEE302BB
:1012A3001207F4E1E4021207F4E3FC031207F4EF7C
:1012B300FC031207F42BFD031207F4EA7F00120765
:1012C300F479EE011207F49CEE011207F473EF01B7
:1012D3001207F4BCEF011207F414F0011207F470C3
:1012E300F0011207F4BCF0011207F432F101120706
:1012F300F4C0F1011207F438F2011207F47BF20192
:101303001207F45AF6011207F4A1F8011207F4C701
:10131300F9011207F45DFA011207F445A00312075D
:10132300F4E5A0031207F44FA1031207F4F6A10397
:101333001207F45AA2031207F48DA3031207F4B39E
:10134300A4031207F42CA5031207F404A70312073E
:10135300F4ACA7031207F4DEA8031207F486A9036B
:101363001207F49BAA031207F4F7E4021207F46FBF
:10137300E5021207F4B7E5021207F4FBE5021207D0
:10138300F444E6021207F48EE6021207F4C3E602FF
:101393001207F441E7021207F49BE7021207F4F481
:1013A300E8021207F47DE9021207F4D9E9021207F1
:1013B300F4F3E9021207F41AEA021207F472EA02DA
:1013C3001207F4DCEB021207F4FBEB021207F4231F
:1013D300ED021207F4A0ED021207F40DEE0212075C
:1013E300F46FEE021207F41FEF021207F4F1F0029A
:1013F3001207F4DCF1021207F4D6F2021207F4DC4E
:10140300F3021207F4F8F4021207F406F5021207C6
:10141300F4DFF5021207F47FF6021207F4C3F602B3
:101423001207F4D8F6021207F4E9F7021207F4538D
:10143300FA031207F4E4F8021207F4E9E1031207CE
:10144300F422E3031207F4DFE3031207F443E40394
:101453001207F4E6DE031207F401DF031207F44573
:10146300DF031207F46BDF031207F491DF031207A4
:10147300F4A9DF031207F40CE0031207F421E003DD
:101483001207F443E1031207F44CE1031207F45586
:10149300E1031207F4FDF5031207F41DD00312074D
:1014A300F4FDD3031207F402D4031207F404D403A4
:1014B3001207F42DF1031207F406FE031207F44C8E
:1014C300FE031207F4DCA8021207F433A902120781
:1014D300F49FA9021207F42BAA021207F4E1AA024D
:1014E3001207F429AB021207F442AB021207F465A8
:1014F300AB021207F487AB021207F4C5AB02120763
:10150300F414AC021207F43FAC021207F49DAC02D0
:101513001207F444AD021207F4ECAD021207F468AB
:10152300AE021207F435AF021207F481AF021207BD
:10153300F409B0021207F442B0021207F4D3B00266
:101543001207F4E4B0021207F456B1021207F4EFE3
:10155300B1021207F459B2021207F449B302120797
:10156300F46EB3021207F46BB4021207F478B402F8
:101573001207F481B4021207F46AB6021207F48B5D
:10158300B7021207F4FCB7021207F4D6B902120726
:10159300F4A1BD021207F4B5BD021207F4C5BD02E2
:1015A3001207F4CFBD021207F4D8BD021207F4E10B
:1015B300BD021207F4EBBD021207F41ABE021207B2
:1015C300F448BE021207F453BE021207F477BE02B8
:1015D3001207F49BBE021207F40DBF021207F45662
:1015E300BF021207F472BF021207F4E3BF0212072D
:1015F300F42FC0021207F478C0021207F4B6C00237
:101603001207F437C1021207F402C3021207F4A14E
:10161300C3021207F469C4021207F4F5C6021207E3
:10162300F44AC7021207F472C7021207F4A5C802EC
:101633001207F4EAC8021207F43FC9021207F4EDD5
:10164300C9021207F492CA021207F4C7CA021207A8
:10165300F467CB021207F4E3CB021207F4D9240098
:101663001207F40B25001207F43F25001207F4F3C9
:1016730026001207F4C727001207F42628001207D2
:10168300F43C29001207F48829001207F4252C00E2
:101693001207F49A2E001207F4E62F001207F47EC5
:1016A30030001207F48A30001207F4D33000120717
:1016B300F40631001207F49231001207F4A4320049
:1016C3001207F4E533001207F4E434001207F40EB2
:1016D30035001207F47935001207F4D235001207EA
:1016E300F44536001207F47B38001207F4013A0080
:1016F3001207F4EC3A001207F43A3C001207F472B2
:101703003E001207F46941001207F4784100120702
:10171300F40C42001207F4B742001207F4FA420035
:101723001207F46643001207F48243001207F4B170
:1017330043001207F4F043001207F4D844001207E1
:10174300F48745001207F4FE47001207F4304900FE
:101753001207F4FF49001207F4814A001207F4CD7F
:101763004E001207F4FC4E001207F4574F00120705
:10177300F48A4F001207F4E54F001207F4015000FA
:101783001207F46250001207F4B250001207F4611A
:1017930051001207F42452001207F4EC520012070E
:1017A300F43855001207F4C456001207F41B58000E
:1017B3001207F43759001207F43A59001207F46973
:1017C30059001207F4585B001207F4215C0012075A
:1017D300F4625C001207F4B85D001207F42E5E0099
:1017E3001207F4615E001207F4C55E001207F4E607
:1017F30060001207F44561001207F41B6200120730
:10180300F42F62001207F44362001207F4706200BF
:101813001207F4A062001207F44464001207F441B3
:1018230065001207F48F65001207F4B6650012070E
:10183300F49166001207F43767001207F4BD6800DD
:101843001207F40469001207F47169001207F4C661
:101853006A001207F46F6B001207F4A36B00120700
:10186300F4BB6B001207F45E6C001207F4DA6E002F
:101873001207F48270001207F4A670001207F4C472
:1018830070001207F49071001207F4DE740012075F
:10189300F41881011207F44A81011207F4CA850181
:1018A3001207F41986011207F45F86011207F40286
:1018B30087011207F46787011207F4AB8701120748
:1018C300F41289011207F43E8A011207F43B8E01D8
:1018D3001207F4BA8E011207F4E08F011207F443E2
:1018E30090011207F48F91011207F4279401120754
:1018F300F4B494011207F4BE94011207F4E69401C0
:101903001207F4AE95011207F44396011207F46C23
:1019130096011207F49996011207F4EE9801120743
:10192300F4BB99011207F4FA99011207F47C9A01A6
:101933001207F4279B011207F4599B011207F4A421
:101943009B011207F4DD9B011207F42C9C01120783
:10195300F4889C011207F40A9D011207F46F9D019C
:101963001207F4E79D011207F4909F011207F48810
:10197300A0011207F4C9A1011207F41DA501120762
:10198300F479A7011207F432A8011207F47AA80127
:101993001207F45BAA011207F496AA011207F49F37
:1019A300AA011207F4A8AA011207F4B3AA011207A5
:1019B300F4D2AA011207F485AB011207F4E2AB01DA
:1019C3001207F4ECAB011207F4F6AB011207F44271
:1019D300AC011207F48AAC011207F48EAD011207B1
:1019E300F427AE011207F4EEAE011207F418B001AA
:1019F3001207F443B1011207F439B2011207F4518B
:101A0300B2011207F485B2011207F4A3B20112075F
:101A1300F4EBB2011207F424B3011207F4DBB301B0
:101A23001207F49CB4011207F40FB5011207F48BEB
:101A3300B5011207F427B6011207F44DB7011207D7
:101A4300F409B8011207F4A9B8011207F496B90111
:101A53001207F4EEB9011207F4B4BA011207F4D76E
:101A6300BA011207F4ECBB011207F437BC011207E9
:101A7300F493BC011207F4FBBC011207F41FBD0170
:101A83001207F447BD011207F48CBD011207F4B02D
:101A9300BD011207F434BE011207F41DBF01120782
:101AA300F462BF011207F48BBF011207F429C001CE
:101AB3001207F494C0011207F4C0C0011207F4A185
:101AC300C1011207F4E4AB031207F41CAC031207C1
:101AD300F43DAC031207F47FAC031207F4E3AC0349
:101AE3001207F4EDAC031207F4FDAC031207F43450
:101AF300AD031207F4DDB0031207F4A5B203120716
:101B0300F489B4031207F42BB5031207F4B5B50334
:101B13001207F491C3011207F4F5C3011207F4533A
:101B2300C4011207F49EC4011207F4B9C4011207D9
:101B3300F4E0C4011207F4FDC4011207F409C5015E
:101B43001207F49AC6011207F4B3C6011207F42F61
:101B5300C7011207F442C7011207F452C701120763
:101B6300F4F6C7011207F462C9011207F475CA013A
:101B73001207F415CB011207F41FCB011207F49ED1
:101B8300CB011207F4AFCB011207F4EECB0112071E
:101B9300F41CCC011207F4E9CC011207F440CD0187
:101BA3001207F479CD011207F4CFCD011207F4ED3A
:101BB300CD011207F43BCE011207F406CF01120741
:101BC300F454CF011207F4A1CF011207F424D0017A
:101BD3001207F44ED0011207F484D0011207F493D4
:101BE300D0011207F4F2D0011207F46AD1011207EF
:101BF300F4ABD1011207F4FBD1011207F426D20191
:101C03001207F440D2011207F45AD2011207F42F3B
:101C1300D3011207F439D3011207F474D301120765
:101C2300F484D3011207F48DD3011207F4DED30138
:101C33001207F4F2D3011207F414D5011207F42B9F
:101C4300D5011207F440D5011207F4D3D5011207C9
:101C5300F447D6011207F4ECD6011207F4F7D601C4
:101C63001207F457D8011207F473D8011207F4BF0F
:101C7300D8011207F42DD9011207F45FD901120715
:101C8300F479D9011207F4BBD9011207F40EDC0170
:101C93001207F4A6DC011207F41DDD011207F47A22
:101CA300DF011207F492DF011207F495DF01120737
:101CB300F4A1DF011207F4B5DF011207F4BDDF0160
:101CC3001207F4F4DF011207F4E8E0011207F472DB
:101CD300E1011207F4F4E1011207F474E2011207BF
:101CE300F44BE3011207F46DE3011207F406E40178
:101CF3001207F463E4011207F466E4011207F49394
:101D0300E4011207F4A8E4011207F417E50112072E
:101D1300F463E6011207F476E7011207F401E80120
:101D23001207F414E9011207F4D9E9011207F40ABE
:101D3300EA011207F430EA011207F439EA01120743
:101D4300F468EA011207F418EB011207F4C8EB0177
:101D53001207F43BEC011207F4DEEC011207F45115
:101D6300ED011207F490ED011207F4D9ED0112070A
:101D7300F40EEE011207F4BFF9031207F4AAF903F4
:101D83001207F49AF9031207F4EDFF021207F4EDB8
:101D93007F001207F489FE031207F478FE0312078B
:101DA300F46C9F031207F4929E031207F4C89D0379
:101DB3001207F4379C031207F4009C031207F4D2B2
:101DC3009B031207F4869B031207F4EF9A0312078F
:101DD300F45F9A031207F4399A031207F4EE990396
:101DE3001207F4B899031207F43B99031207F4D6C8
:101DF30098031207F48598031207F4AD97031207AB
:101E0300F41D97031207F4EFF5031207F4D19603B9
:101E13001207F4D8F5031207F4BEF5031207F44AC8
:101E2300F5031207F435F5031207F4E77F001207F1
:101E3300F44C96031207F40796031207F4EB950389
:101E43001207F481F8031207F49394031207F4655D
:101E530094031207F43294031207F4B693031207A0
:101E6300F41BF8031207F4517F001207F45EE10339
:101E73001207F4F87E001207F4C37E001207F48EF3
:101E83007E001207F45A7E001207F4ED7D0012075C
:101E9300F4D57D001207F4B07D001207F4897A00AF
:101EA3001207F45C78001207F46376001207F4EF6C
:101EB30075001207F4A075001207F45A7500120793
:101EC300F4FC74001207F498F7031207F48CF80279
:101ED30000000080FBE4738F0001000F10870001F6
:101EE30000651235000400E30F25000200E70F260A
:101EF3000002003112270002003312280001003DC6
:101F030012290001003E12840004003F12860001E2
:101F13000043122A00010044122B00010045122C39
:101F230000010049122D000800F10F2E0001004AA4
:101F3300122F0001004B12300001004C123100013E
:101F4300004D1232000100F90F33000100FA0F3483
:101F53000001004E1236000100FB0F380001004F54
:101F6300123900010048128300020063126300016A
:101F7300000C106400010046126500010047126D59
:101F83000001000D1071000800E90F6600010062F6
:101F93001243000100531244000200541245000191
:101FA300005612460002005712470008000410486A
:101FB30000010059124B0001005A1204000100668F
:101FC30012A10001006912370001006812880001A4
:101FD3000067123C000100FC0F3D00010050124954
:101FE3000002005B12670001000E104D0002005D4D
:101FF300124E0001005F124F00020060123E00010A
:1020030000031051000100FD0F5200010051125353
:10201300000100521254000100FE0F0000000000F6
:102023000000013636010100010201000103010035
:10203300010401060605020000070100340801003F
:102043000F090401010D0100FF0E08000017020033
:1020530000190100FF1A0100011B0100FE1C010011
:10206300081D0200001F01000120010001210200E0
:10207300002301000F2402000026010001270100B4
:1020830008280200FF2A0100072B0102402C01004F
:10209300002D0100012E0100012F0100FF30010B73
:1020A3001D310800003A0100083B01000F3C01000C
:1020B300013D0100FF3E040000420400004604000D
:1020C300004A0400004E04000052040000560400BD
:1020D300005A0400000000030020011581000000E5
:1020E3000020011481000004004201378000000534
:1020F30000420158800000060042012680000007CC
:102103000020011781000010004203051200001196
:10211300002003E50E000012002003161203000046
:10212300002103E60E060000001001E80E07000080
:10213300003001D70E070010003003E91100000042
:102143000000000000000000000000000001037117
:10215300030103010301030103010322030203013A
:102163000310030003000300030003000300030044
:1021730003420300032403060300030003040312C2
:10218300032503230325032303040304030003009C
:102193000300034403000300032303000365032137
:1021A300003503810300030503000300030003005C
:1021B300032503230303027102300160021102703D
:1021C300020102020202028002100261023A00418D
:1021D30000630273027202620243020002130238B6
:1021E30000000200020402120200020002000200C8
:1021F3000204020402370037003C024402000239A1
:10220300000002000265020002350281020002059D
:102213000282028302000201017101010101011125
:102223000101013101010101018001100161013B43
:102233000014006301730172016201430100011381
:102243000106013D013500040112010001000100F6
:1022530001000104010401330133013C0144013253
:102263000136000001000165010001350081010014
:102273000105018201830100010300710030016047
:10228300001100700031022003500480001000612F
:10229300000000140063007300720062004300003A
:1022A30000130006000000000004001200000000FC
:1022B300000000000004000400370037003C024423
:1022C30000000000000000000065000000350081F0
:1022D3000000000500000083000000360001000636
:1022E3000000000F000000000000000000000000DC
:1022F3000003FFFF00000403FFFF0000FFFF0FF4D4
:10230300010005C4040320000100000B00000000CD
:102313000000000003010F000000000000000000A7
:1023230000000000000000000000000000000000AA
:10233300000000000000000000DB101711E110276F
:1023430010E7101D11E7102911ED102710E7101DDC
:1023530011F3102710F9102710FF1027100511276C
:10236300100B1127101111271000000000000000AE
:10237300000000000000000000000000000000005A
:10238300000000000000000000000000000000004A
:1023930000000000000A000000020000000400002A
:1023A30000080000001000000020000000400000B2
:1023B3000080000000000100000002000000040093
:1023C3000000080000001000000020000000400092
:1023D3000007ECFDFDFDECDCDCCCBCACAC9C9C8CC8
:1023E3007C7C6C6C5C5C5C4C4C3C3C2C2C1C1C0363
:1023F300EAF5E5D5D5C5B5A5959585857575656565
:102403005555454535352525151505010033130269
:1024130000DF120300E5120400EB120500F11206BF
:1024230000FD12FFFF00000A031902D31805E51887
:1024330007D9180CBB180DC718FF000000160F00B2
:10244300000B150B020002220F3300000E010305DF
:1024530007090B0D0F00020406080A0C0D5A6967E1
:10246300426565416C6C69616E6365303900393D65
:102473003F373C3C362C442D00034A49434E181A3F
:10248300250502000119161816161823030030300B
:1024930017181921301B1D1F30303016181920232F
:1024A3001A1C1E300C0E020B040B0A0708000F0245
:1024B3000402010101010902E803000000BE040A4D
:1024C300E8030E00FF1E040903101E0A040C04088F
:1024D300280C05080304C082C083121E5B90103AC7
:1024E3007475F0A37416F090103C747BF0A374160B
:1024F300F090103E7481F0A37416F090104074872E
:10250300F0A37416F0025C1A74F71203A5E9FE90A7
:10251300102EE4F0EE90102DF07C047D107A2F7BCA
:1025230010121003901259E0901037F09010387485
:10253300E9F0A3740FF01216AB0249FA74F0120318
:10254300A58A088B09EB5480700302269790102DFF
:10255300E0F9120E838A0A8B0BAE0AAF0BEE4F70B3
:102563000302268E124DF3707EEE241F125139643E
:10257300137002A3E070708E828F83A3A3E0F50E25
:10258300A3E0F50F901048125623750A00750B004F
:10259300800D1233CE125DED120F01AA0CAB0DEAC2
:1025A3004B60448A828B83E0650E7004A3E0650F61
:1025B30070288A828B83A3A3A3A3124E11E50A4535
:1025C3000B8A828B83A3A3A3A360C7124350850AFC
:1025D30082850B83A3A3A3A380BB8A0A8B0B8A8266
:1025E3008B8312561F80B8EE242A125139F91261D7
:1025F300A6901048123867A3A3A3A3A3A3A3A3E0A1
:10260300640270378A828B8312562380078C828DF3
:1026130083123ACBEC4D60208C828D83E06A700389
:10262300A3E06B70E88C828D83A3A3E06970DE90D6
:10263300125F12478DF0804C1216C38E828F83E097
:1026430064017034EE24181226EB1208681241F16B
:10265300120698EE24121226EB1208681241E512B4
:10266300086412329612069CEE24171241F9121EC8
:10267300A9740A120826800CE064027007EEFAEFD0
:10268300FB1217E3EEFAEFFB120E71AA08E50964D9
:1026930080FB8051EA5402600C90126D7401F0EAE1
:1026A3006402FA8040EA540460091216B1E5086432
:1026B300048029EA540860291216BD8B0BEA450BE6
:1026C300701690104AE4F0A3F0A3F0A3F07A08FB8D
:1026D30090102DE0F9120FD3E5086408FAAB0980D6
:1026E300047A007B00023C35124DFDF50A780A227C
:1026F30074F41203A58A088B098A828B83125638D5
:102703001240E538F583E02409FA7B00120E6B8A48
:102713000A8B0BAE0AAF0BEE4F70030227B78E8204
:102723008F837402F0A3E412652AA3A3A3A3E8F0A2
:10273300A3E91261CAA3A3A3A3A3A3A3F0E5082457
:1027430003F8E435091258DB1240E53AF5831238F1
:1027530060F0EE2409FAE43FFB8E828F83A3A31279
:102763005D78F5838882E0A2E58E828F83A3A3A39D
:10277300A3A3500474018001E4F0E5082403F8885E
:10278300828983125623EA1240D93BF5831227BA72
:10279300120860EA2410125E138E828F8312562170
:1027A300120E4D7403120826EEFAEFFB90102DE083
:1027B300F9120E770230CEE0F508A3E0F509750AA9
:1027C3000078082274F21203A58A088B09ECFAED4B
:1027D300FB740E120AE6E0FC121E018A0C8B0DAE8E
:1027E3000CAF0DEE4F6030AC08AD09121E37E96037
:1027F30026AC08AD09EEFAEFFB121E31E970148E18
:10280300828F83124348FAEFFB121E3DAA08AB09DD
:10281300121DE97900800279B480031208267F062D
:102823000205CD74EE1203A574F71208DA8A0A8B37
:102833000BECFEEDFF750CB3750D00750E008002F9
:10284300050E9024D8E493F8E50EC39840030229BB
:1028530035AA0E7B00121DC58A088B09EA4509605B
:10286300DF8A828B83A3A3A3A3A3E0250DF50DF831
:10287300C3E50A98E50B940050C67C157D007900EA
:10288300EEFAEFFB120E59850882850983A3A3A3F1
:10289300A3A3E0F8E50AC3950D2825E0F8E433F98E
:1028A300E50828F582E50939F583123636125DED20
:1028B3001219938A0A8B0BAC0AAD0BEEFAEFFB12DB
:1028C3001003850882850983A3E06401700B12411C
:1028D300F1740112706DA3803DAC18AD19850882A7
:1028E300850983125621121DDDE9602D7408120A31
:1028F300E6E0C0E01241F1D0E0F07408120AE6E02D
:102903006403700CAC18AD19123858121003800907
:10291300851882851983125DE185088285098312F2
:102923003C08A3A3126501C0E0123E26D0E0F07577
:102933000C00A90C740902689C74F71203A5E9FE44
:102943008A828B83A3A3A3A3A3A3E0540860338A3F
:10295300828B83A3A3A3A3A3A3E0540260218A824F
:102963008B83A3A3A3A3A3A3A3A3A3E06406600FE2
:1029730074E96E600A74CD6E600574F06E700312B4
:1029830016930249FA74E81203A574F81208DA746C
:1029930006120AE6124EC7ECFEEDFF891775150005
:1029A300122BFE121DF58A0A8B0BEA450B700302EC
:1029B3002BBAEE24101239EDA90A1215D38A128B01
:1029C30013EA45137003022BBAEE2403F50CE43F1C
:1029D300F50DEE2406F508E43FF5097C0085088231
:1029E30012413D121DEF8A108B11850C82850D83D8
:1029F300E0851282851383A3A3A31256B78512829F
:102A0300851383A3A3A3A3E8F0A3E912329E85123F
:102A130082851383A3A3A3A3A3A3A3124E84851226
:102A230082851383A3A3A3A3A3A3F0EE1240D93FEC
:102A3300122C0F120860EE1240E53F125E1785124A
:102A430082851383A312561B120E4D74031208269C
:102A53007428120AE6124350E51212477F35131207
:102A63005DEB742A120AE6E0C0E0E5121240D935A4
:102A730013F583D0E0F07514007423120AE6E0F531
:102A8300167424120AE6780C120A9B022B41851055
:102A930082851183125621121DD7850882850983E9
:102AA300A3EAF0A3EB122C20A3A31261E2122C1AC7
:102AB300A2E6500F850882850983A3A3A3A3A3E0FD
:102AC300D2E1F0E515706685088285098312434FCC
:102AD30090107EE0687003A3E069705185088285D9
:102AE3000983A3A3A31239FB751000781012086899
:102AF300780C12085CE516F5107810120868742635
:102B0300120AE612069C90108B12069C7900741030
:102B1300120AE61261C2121813740A1208268508F3
:102B230082850983A3A3A3A3A3E04405F07401252D
:102B330014FC122BFE121DEF8A108B110514E510E5
:102B43004511604EC3E514950AE4950B5044E51412
:102B530075F006A4F8A9F0E51228F8E51339F9E8A9
:102B6300240FF508E439F509850882F583E4127426
:102B730093E064016003022A91751501850882853B
:102B830009837401122C201250A4A3E8F0A3E902D4
:102B93002AA8AA12AB131215D97812120864AD161B
:102BA3007424120AE6E0FCA917EEFAEFFB12168D65
:102BB3007402120826803A8E828F83A3A3A3E0C0F7
:102BC300E07403120AE6D0E012329EC0E0740412ED
:102BD3000AE6D0E0F0E50A450B70097405120AE62F
:102BE30074B980077405120AE67410125E2812186D
:102BF3000D74081208267F100205CD8E828F831272
:102C030056278E828F83A3A3A3E0F922F583124E66
:102C130015750E00780C22A312620BE02212749732
:102C2300A32274E91203A574F31208DA8A0C8B0D3C
:102C330089168C148D157424120AE612551FAA08DE
:102C4300FB1215C7E9F513AA08AB091215CDE51355
:102C53007003022E6B750E00800F8E828F83A3A3E9
:102C6300A3A3A3E0D2E3F0050E123E30E0F8E50E95
:102C7300C3984003022E62E5137003022E62E50E31
:102C830075F006A4F8A9F0E50828F8E50939F9E88C
:102C9300240FFEE439FF8E828F83A3A3A3A3A3E0B3
:102CA300A2E040C3750F00750A08750B00E51560B7
:102CB30003750F207C087D007900AA18AB19120E4A
:102CC300598E828F83E060379010CEE064017017D5
:102CD300E50FD2E3F50F750B108E828F83122E8DC5
:102CE30012580674FF8028430F0C750A0C8E828FCE
:102CF30083A3122E83A3A3A3A3126891A38010E539
:102D0300166009E50FD2E6F50F750A0A122E8DF04B
:102D13007402120AE6E50FF01240E3350DF583E085
:102D2300C0E07404120AE6D0E0F07405120AE61259
:102D33005E261217E9740C120AE6E06003022E45C0
:102D43007408120AE61256858E828F83A3A3A3A367
:102D5300F07408120AE6124E39E50AF0A3E50BF007
:102D6300124DE9E514122C1B60119010CEE0C0E067
:102D73007408120AE6124E29D0E0F07408120AE62B
:102D8300123E50A3A3A3122E7E124DE0124EC71281
:102D930068FC122E7E124DD7EAF0A3EB12642EC00C
:102DA300E0124DCDD0E01264F2C0E07408120AE6DE
:102DB30012491FD0E01260DBC0E07408120AE61269
:102DC3004913D0E0F07408120AE6122E8312490266
:102DD300122FD6122E7E242CF582E439F583124E5F
:102DE300C7E50C12475F350DF583E0C0E01248FAE2
:102DF300D0E0F07408120AE6125623850C82850D82
:102E030083122E752428F582E43B125DEBE50C1248
:102E130040D9350DF5831268AC751200781012088D
:102E2300601240E3350D125E17EA1260583BF583DA
:102E3300125623120E4D7403120826AA18AB191248
:102E430017EF8E828F83A3A3A3A3A3E0D2E0F07432
:102E53000C120AE6E06003022C5D1513022C6A795A
:102E630000AA08AB09121699740D1208267F0F02E7
:102E730005CDA3A3A3A3124354EA2212562DE8229D
:102E8300124354850C82850D8322A3122E922212A3
:102E93005DADE8F0A3E92274EE1203A574E912080C
:102EA300DA8A088B09890A8A828B83A3A3A3A3A343
:102EB300A3A3A3E0F91215F18A0C8B0DEA450D705B
:102EC30003022F651254EB123AE6E50A6003022F60
:102ED3006A7C04850882850983A3A3A3A3A3A3A370
:102EE300A3E0F91215F7EE4F60788E828F83A3A3C8
:102EF300A312434F7406120AE6E8F0A3E91261F144
:102F0300F8A3E0F97408120AE6124EBAC0E074108E
:102F1300120AE6D0E0122FD612434F740E120AE6BD
:102F2300125DED7411120AE6E41256A8C8241FF5C7
:102F330082E438F5831252E8C413135403FC70027D
:102F43007C048E828F83E0F9780C12086474205914
:102F5300FD744059F974021208CA12168D740212D4
:102F63000826741702689C7C08850882850983A358
:102F7300A3A3A3A3A3A3A3E0F91215F78B0FEA4519
:102F83000F7003022EE9EE4F60D8E50AF50B780BBC
:102F9300120868850C82850D83A3A3A3A3A3A3A30F
:102FA300E0F50B780B1208688A828B83A3A3A3E056
:102FB300FB8A82850F83123ACE8A82850F83E0FAD9
:102FC3008E828F83A3A3E0F9121EAF740212082628
:102FD300022EEDF0850C82850D83A3A3A3A3A3A3E7
:102FE300A3A32274F71203A574FA1208DAE9FE7C8C
:102FF300017D017F0080037D000F12512EE0F8EF69
:10300300C3985028EF75F006A4F885F008A908EADC
:1030130028F8EB39F9E82414125AD0A2E050D85416
:103023000C60D4E0A2E250D17C0080CD8A828B83F5
:10303300A3A3A3A3A3A3E0703DEDA2E04005740105
:103043006E70338A828B83A3A3A3A3A3A3740112F9
:1030530047C7E0C0E07403120AE6D0E01247BFE0BE
:10306300C0E07404120AE6D0E0F07405120AE6EC3C
:10307300125E2812180D74060249F7C082C08379C4
:1030830001121699025C1A74F41203A5EA4B90120A
:103093006D6022E4F08A088B09F50AF50B780812B3
:1030A300085C7A027B0090102DE0F9120FC77404BC
:1030B300120826800F7401F07A027B0090102DE035
:1030C300F9120FD3800574021208267F040205CD7E
:1030D300C082C0839011E6E075F005A4FCADF079E1
:1030E300007A0F7B06120E597A00800A1232777427
:1030F300FEF0A304F00A9011E6E0F8EAC39840EC6E
:10310300025C1AC082C0837A007B0080037A010BC1
:103113009011E6E0F8EBC3985056EB75F005A4F870
:10312300ACF0EC12328E7003A3E0F460E2740F286B
:10313300F8740639F9E82403F85001098882898371
:10314300E024FFF0A3E034FF125930F9E84970BDE1
:10315300EB75F005A4F8ECF9740F28F8740639F947
:103163008882898374FEF0A3041234DEE4F0809F26
:10317300EAA2E0501790810C1206987A047B009023
:10318300102DE0F9120FC77404120826025C1A749A
:10319300F71203A5EAFEEBFF9011E6E0700302329B
:1031A3006EEE2411125139700302326E8E828F83B8
:1031B300A312561B121A0BE96402600F8E828F83CF
:1031C300A3A3A3A3A3E0700302326E7A00802712A5
:1031D3003296123ACF123277E06C7003A3E06D702F
:1031E30014EE2412125139FC741128F5827406125C
:1031F3005AD36C607B0A9011E6E0F8EAC39840CF9B
:103203007A0080010A9011E6E0F8EAC3985061EA77
:1032130075F005A4F8ABF0EB12328E7003A3E0F463
:1032230070E2740F28F874063BF912329612608824
:10323300EAF0A3EB12329E888289831234D7740C8E
:10324300124E847A04FB90102DE0F9120FD9EA4B49
:103253004C4D701790810C1206987A047B009010E5
:103263002DE0F9120FC7740412082679010249FAF6
:10327300790080F9EA75F005A4F8A9F012328322E7
:10328300740F28F582740639F58322F9123283E02C
:1032930064FE22EE12619E3FF58322F012667AE00D
:1032A3002274E81203A574FC1208DA7402120AE607
:1032B300E4F0A3F0901048123AE68518828519834A
:1032C300E4F0A3F0751401901078E0A2E350030238
:1032D300335A120FEB8A088B098C0A8D0B8A0C8BDD
:1032E3000D8C0E8D0F90104A780C1208AA1233D54C
:1032F3007810790C120A4D50077A017B000233C90A
:10330300850C14850D15850E16850F177814791005
:10331300120336A814A91590125FE0C398E49950DC
:1033230003E08001E8F5141233D5780C7910120309
:1033330036E4F512F5137808791012095990104AFA
:103343007808120A7D80101233CE12521FFAEFFB57
:10335300120F01AE08AF09EE4F60638E828F83A315
:10336300A3A3E0F8E514C3985029EE2403F582E4FF
:103373003FF583A814E0C398F060217402120AE6B3
:103383001244CF124E89EEF0A3EF1260E0FEA3E0E9
:10339300FF80C48E828F83A3A3A3E4F08E828F83E6
:1033A30012551B8518828519831256A38E828F832B
:1033B300A3A3A3A36091125DA51258F6808C740297
:1033C300120AE61256237404022BF6124354901089
:1033D300482290125DE0F510A3E0F511E4F512F533
:1033E300132274F21203A58A0A8B0BE9FE7A007B7F
:1033F3000090104812551F9010481256A3601E0AE1
:10340300850882850983A3A3A3A31256A3600E0A8A
:10341300EA70010B88088909E8450970E390126096
:10342300124350C3EA98EB9940030234D47A067BE3
:1034330000120EFB8A0C8B0DA80CA90DE849700332
:103443000234D488828983E50AF0A3E50BF0EE8881
:10345300828983A3A3F090125F125B2AA31234D74D
:10346300A3E4F0A3F0901048124360600F85088234
:10347300850983A3A3A3A3125DED801F90104812B7
:103483005DED901078E0A2E34011120FEBEAF8EB48
:10349300F9ECFAEDFB90104A120AB7901078E0A20B
:1034A300E3502E7A087B0090102DE0F9120FD9EA31
:1034B3004B4C4D701C90125D126ED1780812085C53
:1034C3007A087B0090102DE0F9120FCD74041208D6
:1034D30026022821A3A31234DEA322125AB5A3A3E2
:1034E30022C082C083E990126EF090104274E1F022
:1034F300A37416F090104474F3F0A37416F09010B4
:10350300467405F0A37417F0025C1A74F71203A54E
:10351300EAFEEBFF8908EE4F7003121D8F90104EE9
:103523001256A3700890104E80221243508882894D
:1035330083A3A3A3A3A3A3A3A3A312436088828902
:1035430083A3A3A3A3A3A3A3A3A370DEEEF0A3EF7C
:10355300123565A3A3A3E4F0A3123565E508F002D1
:1035630049FA1235692212356D22F08E828F83A3B8
:10357300A3A3A3A3A32274F71203A590104E800D57
:103583008E828F83A3A3A3A3A3A3A3A3A3123AE629
:10359300EE4F60348E828F83A3A3A3A3A3A3A3E0E0
:1035A3006970DD8E828F83A3A3A3A3E06A7003A354
:1035B300E06B70CC8E828F83A3A3A3A3A3A3E06C41
:1035C30070BEEEFAEFFB80047A007B000249FA74C6
:1035D300F71203A590104E123AE690104E122E7970
:1035E300687002EB69701EE0C82409F582E438F5BF
:1035F3008312435090104E125DED90104E123AE636
:103603008027123AD9EE4F60208E828F83A3A3A323
:10361300A3A3122E75687002EB6970E68A828B830E
:10362300A3A3A3123636125DED120F01EEFAEFFBE0
:103633000249FAA3A3A3A3A3A3123E44A3A3A3A350
:10364300A32274F01203A574FA1208DA8A088B090C
:103653008A828B83A3A3A3A3A3A3A3A3E06033645E
:1036630001602F8A828B83125623121A0BE9702270
:10367300850882850983A3A3A3A3A3A3A3A3E064CB
:1036830003701474041208D2AA08AB09121783E951
:1036930070167902023841850882850983124350E6
:1036A3007404120AE6125DED12666D2434125D6035
:1036B300120EFB8A0A8B0BAE0AAF0BEE4F7003029E
:1036C300383F7C347D007900120E5974021208CA07
:1036D300850882850983A3A3A3A3A3A3A3A3A3E02C
:1036E300F9121E677402120AE6E0C0E0123850D0E5
:1036F300E0F0EE242EF50AE43FF50B7403120AE61C
:10370300E0850A82850B83F07901EEFAEFFB12164E
:10371300CF85080C85090D750E00780C1208607CA6
:103723001E7D00123858120E4D7403120826EE2423
:1037330032123BFE2434F8E43FF98A828B83125D14
:10374300EDE5082411F8E43509F9E8FCE9FD8C827C
:103753008D83124E452430125DE7123BF612718AB7
:103763001208608C828D83123867125623120E4D15
:1037730074031208267404120AE6123E40125DED29
:1037830090102E123860A3A3A3F090102EE004F043
:10379300120FEB8E828F83124E7D242C12411275F1
:1037A3000D00850A82850B83E0780C1209948A82C6
:1037B3008B83E50CF0123846E50C124E89E4F0E5F4
:1037C300082415126671A2E074015007120AE67408
:1037D300018004120AE6E4F0EE2429125512AA1815
:1037E300AB19121E85E924FE850882850983F0EE54
:1037F3002430F8E43FF9E8FCE9FD12386F12025D6A
:10380300E88E828F83A3A3A3A3A3A3A3A3F0123859
:103813006F12025D8B09EA4509600F8E828F83A3C5
:10382300A3A3A3A3A3A3A3E004F0EE24201251397E
:10383300440812415E120EAD7900800279107406BD
:10384300023C32EE242BF582E43FF58322EE126034
:10385300583FF58322EE240BFAE43FFB221261D298
:10386300A3A3A322123AD38A828B83228C828D83D1
:103873001250A8E0FA7B002274F41203A5EAFEEBCF
:10388300FF120FEB124EC3901253E0F8EE242D12E9
:103893005139C39840030239DB12411E7013EE24E1
:1038A3002D12513904123C23E0C0E0123846D0E017
:1038B300F0EE242A125139FC7900800109EE242EFE
:1038C300125139F8E9C3985026750801750900E9C2
:1038D300780812099412411E550860E0E92CFC7522
:1038E3000801750900E97808120994E04508F0EE2B
:1038F30024291239EDEE2430F582E43FF583EC8A76
:10390300F0A4F8ABF0E42BF9E098F8A3E099F9C33D
:10391300E89AE99400EE40342429125139F812410F
:103923001E602F1238501239FBA3E4F0EC704AEEFC
:1039330024201251394420124EBEC0E0125157D0F8
:10394300E0F0EE24321239EDA3E0805212384774CE
:10395300FFF090106EE0FA9012561239F2ABF07548
:10396300F064A4FAADF075F064EBA42DFB8E828FA6
:1039730083A3A3EAF0A3EB80B2EE242012513954BF
:10398300DF125152ECF0FAEE2429F582E43FF5837D
:103993001239F2FAABF0EE124DC73F124134FB126B
:1039A30064D6EAF0A3EB1261FAC0E0EE2425F582B7
:1039B300E43FF583D0E0124E55E8124E8490105048
:1039C3001256A3600BECF91270A2121ED8E97017FD
:1039D300123858121759800F7BE9123C14121EB586
:1039E300EEFAEFFB1216DB0230CE124DFDFA22E0A7
:1039F300F508EA8508F0A4221261D2A3F02274F438
:103A03001203A590104E123AE6120FEB8A0A8B0BA3
:103A130078FF79FF8020E0C39AFCA3E09BFDC3EC11
:103A230098ED99500E8E828F83A3A3E0C39AF8A3D7
:103A3300E09BF9123AD9EE4F605C8E828F83125667
:103A430023E50AC39AFAE50B9BFB8E828F83123A16
:103A5300CDC3EA9CEB9D8E828F83A3A340B8A3A31F
:103A6300A3A3E06402701AEE240B12412160091231
:103A730040F9125623120E71EEFAEFFB1216DB8099
:103A830007EEFAEFFB1216E77A017B0090126EE065
:103A9300F9120EAD802974FF68700374FF69601F0B
:103AA30088088909E4F50AF50B780812085C7A019D
:103AB3007B0090126EE0F9120FC7740412082602FD
:103AC30030CEA3A3A3A3A3A3A3A3A3A3123AD32256
:103AD300E0FCA3E0FD228E828F83A3A3A3A3A3A371
:103AE300A3A3A3E0FEA3E0FF2274F01203A58A08B8
:103AF3008B09ECFAEDFB890A7C0112666DF912164B
:103B0300D58A0C8B0DAE0CAF0DEE4F7003023BF458
:103B1300E50A6003023BF4123BF6123C0C686003B7
:103B2300023BF4123BF6E0FAEE242E125139F8EA86
:103B330028FAE43400FB8E828F83A3A3A3A3A3A359
:103B4300A3A3E0F8EA98EB9400C365D033401CE5E7
:103B5300082414126671F470127B00123C14121EB6
:103B6300B5EEFAEFFB1216DB023BF4E50824141260
:103B73006671F47041EE242B123BFE242EF8E43FD1
:103B8300F9E8FCE9FD7508FF7509008C828D83E077
:103B930078081209948A828B83E508123C23E5088E
:103BA300F08C828D83123C0C28F0EE242DF582E4F8
:103BB3003FF583E4801BE5082414F8E43509F9E0B4
:103BC300C0E0123C28D0E012592CC0E0123846D095
:103BD300E0F0120FEB8E828F83124E7D123851125A
:103BE3003C08A3124E847A01FB90126EE0F9120E88
:103BF300AD803FE5082413123E3822F8E43FF9E88C
:103C0300FAE9FBEE221261D222E0F8EE125ABBE08F
:103C130022EE2422124DFDFAEE2414124DFDF92258
:103C2300F0123C2822EE242CF582E43FF583221285
:103C330008267F080205CD74EC1203A574FE120852
:103C4300DA8A0A8B0B8C0E8D0F89108A828B83A3E1
:103C5300A3E0F9121E918A088B09AE08AF09EE4F53
:103C630070077A007B00023E1C7A127B00120EFB67
:103C73008A088B09EA45097003023E187C127D000D
:103C83007900120E59AA18AB19850A82850B83A3F2
:103C9300A3E0F9121E67E508240FF50CE43509F5D6
:103CA3000D7401120AE6E0850C82850D83F079021A
:103CB300AA08AB091216CF850E82850F83123E50D8
:103CC300123E5E1240D21261D9F07512FF751300D5
:103CD300850C82850D83E078121209941268FCE545
:103CE3001212492B1270A0E0C0E0123E30D0E0F077
:103CF3001240EFF50CE508240D126900E50CF0E520
:103D03000A124101850CF0A4A9F02427FAE439FB37
:103D1300120E6B8A0C8B0DAE0CAF0DE5081263EE21
:103D2300EEF0A3EFF0EE4F7003023E0B8E828F8313
:103D3300741A124E848E828F83A3A3F0A3123E645F
:103D4300123E40125DEDAC0EAD0F1264E0121E7315
:103D5300850A82850B83A3A3A3E0C0E01252DAD0C5
:103D6300E0F090108B124E452410123E58124E3341
:103D7300350B124E43125E0AE8F0A3E9123E64A328
:103D8300A3A3A3124E452412125DE7850A82850B75
:103D930083A3A3E0C0E0123E26D0E0F0E50A124779
:103DA3007F12410DE0C0E0126191D0E0F074161271
:103DB3000AE6126408C0E012665BD0E01261ECC050
:103DC300E01263F4D0E0126411C0E01263FED0E0AD
:103DD300124E4AE510F07418120AE6120AC3EE24D2
:103DE3001AF582E43FF583120AB7EE2427F8E43F7D
:103DF300F9EE2422123E58125D5812410DE0C0E044
:103E03001264E8D0E0F0800DAA08AB091216DB7546
:103E13000800750900AA08AB0974021208267F0C72
:103E23000205CDEE2414F582E43FF58322123E34DD
:103E330022E508240BF582E43509F58322123E447A
:103E43002212658A8E828F83A3A3A3A3221250A872
:103E5300A3A3A3A322F582E43FF583124EB4E50A9C
:103E630022F0850A82850B83A3A3A3A3A3A32274B1
:103E7300ED1203A58A0A8B0B8C108D11891275091B
:103E830000EA124101F5089010501256A3600EA9E2
:103E9300081270A2121ED8E960030240CD7C02858D
:103EA3001082851183125623E50A1240D2E0F912DB
:103EB30016D58A0C8B0DAE0CAF0DEE4F7054850AE0
:103EC30082850B83A3E0A2E040030240CD74151268
:103ED3000AE61206987417120AE612069CA912AC97
:103EE30010AD11AA0AAB0B1216F974061208268A32
:103EF3000C8B0DAE0CAF0DEE4F70030240CD8E82D6
:103F03008F83A3A3A3A3A3A3A3A3E50812415E12D4
:103F13000EADA8088E828F83A3A3A3A3A3A3A3A3F9
:103F2300E024FFFAE434FFFBEA684B7003750901F0
:103F3300EE240B1241217003024082850A82850B15
:103F430083A3E0A2E0500375080012414BE5089AF1
:103F5300E49BC365D033401CE0F8EE240E125139C4
:103F630028F0750CFF750D00E8780C120994125CAB
:103F73004CE50CF0E50A1240D9350B122C0F120850
:103F830060E50A1240E5350B125E17EE240D12515F
:103F930039F50CE508850CF0A4FAABF01240F912E0
:103FA300563B2422F582E438124134FB120E4D7441
:103FB30003120826750C01124126780C120994127B
:103FC3005136450CF0E509A2E05063EE240C124192
:103FD3001212412604780C1209948A828B83E045DD
:103FE3000C124E6885080C850CF0A4F8A9F0124059
:103FF300EFFCE82CFCE439FD1240F912563B242077
:10400300F582E438F583ECF0A3ED124E95F4701EBF
:10401300EE240BF50CE43FF50DEE1240E53F1241A3
:104023003D120E77850C82850D8374FF8050120F2D
:10403300EB124EC390106EE0FA901256E0F50CEAC4
:10404300850CF0A4FAABF0F8EBF9901253E0F50C01
:10405300E8850CF0A4F8ACF0850CF0E9A42CF9EA9F
:1040630028F8EB39F9E875F064A4F8AAF075F06460
:10407300E9A42AF98E828F83A3A3E8F0A3E9F0A829
:104083000812414BEA24FF1AEB34FFFBEA68700184
:10409300EB600EEE240C1241216006E509A2E0500C
:1040A30029E50A124106ECF0125136C0E0E50A2474
:1040B30014F582E412410DD0E0F0AC0AAD0B85108B
:1040C300828511831256231217477F0B0205CD12E7
:1040D300475F12410D221240DD22240EF582E422B5
:1040E300E50C1240E9222410F582E422E50A12408D
:1040F300E912410DE022EE1240E93FF5832212411D
:1041030006E02212475912410D22350BF58322F89E
:10411300E43FF9E8FAE9FB750CFF22EE242B124D7C
:10412300FDF422750D00124DFAF5F0E50884E5F073
:1041330022F583E02AFAA3E03B22F58312562D856C
:104143000C82850D83E0F922EE240E124DFDFC1244
:104153004DFAFAEC2AFAE43400FB22F07A017B00F0
:1041630090126EE0F922C082C08390126EE0F912C1
:104173000E77025C1A74F41203A58A088B09EB54B8
:1041830080703BEAA2E050531216EDE5086401FA91
:10419300AB09804B8E828F83E06401701A1241F168
:1041A3001206981241E5120864EE24121241F91224
:1041B30016FF7406120826EEFAEFFB120E71901228
:1041C3006EE0F9120E838A0A8B0BAE0AAF0BEE4F29
:1041D30070C2AA08E5096480FB80047A007B0002B0
:1041E30030CEEE240FF50AE43FF50B780A22EE12E7
:1041F30047593FF58322124DFDF9EE2402FCE43FBB
:10420300FDEE2419FAE43FFB2274F11203A5890A97
:104213008A088B098A828B831256231217178B0DF8
:10422300EA450D600579B80242B4121723E9F89004
:1042330024CCE493F9E8C399400479B280737A15E6
:104243007B00120EFB8A0C8B0DAE0CAF0DEE4F7084
:10425300047910805C8E828F83E4F0A3126206A33C
:10426300E50A1264211208607C127D00EE2403FA31
:10427300E43FFB120E4D740312082690105212569F
:10428300A39010527006EEF0A3EF801FE0FAA3E0B4
:104293008003E8FAE9FB8A828B831256A370F3EE5C
:1042A300F8EFF98A828B83E8F0A3E9F012173579E6
:1042B30000025811C082C08390105280048C828DFA
:1042C30083123ACFEC4D60288C828D83A3A3E069DF
:1042D300600574FF6970E68C828D83A3A3A3E06AF3
:1042E3007003A3E06B70D6EC2403FAE43DFB800477
:1042F3007A007B00025C1A74F71203A5E9FD74FED1
:104303006D70047C0180027C0090105280096D70F6
:10431300027C01888289831256A3601F8882898365
:10432300A3A3A3E06A7003A3E06B70E7ECA2E088A9
:10433300828983A3A3E050D6F9800279FE0249FA69
:10434300EEF90247F9A3A3125523EE22A312435415
:104353002212658A221208267F030205CD12562DEA
:10436300EA4B22C082C08379009010528001091267
:1043730056238A828B83E582458370F2025C1A742A
:10438300F61203A5E4F508F50978081208649024E9
:10439300CCE49375F013A4A9F01244C4120F737400
:1043A30002120826E9FE600312172F02434374F634
:1043B3001203A574FE1208DA851882851983E4F0C6
:1043C300A3F0A818A9198808890978081208647540
:1043D300080275090078081208647C007D007A429F
:1043E3007B00120F7F74041208260247F474F5123F
:1043F30003A574EB1208DA851882851983E4F0A308
:10440300F0901052E0FEA3E0807E8E828F83A3A300
:10441300E0C0E07402120AE6D0E0125806A982AAAC
:104423008389088A09750A0078081208607C127D5E
:10443300007406120AE6AA82AB83120E4D740312AD
:10444300082674021208C2880889097808120864C9
:1044530075081375090078081208647404120AE6D3
:1044630012552F75F013A4F8AAF075F013E912444E
:10447300C0120F7F740412082685188285198312CF
:1044830044CF12657FE8FEE9FFEE4F600302440D5F
:10449300A818A919880889097808120864750802F8
:1044A30075090078081208647C007D007A427B005D
:1044B300120F7F74041208267415024358A42AF9B4
:1044C300E82402FCE439FD7A427B0022E02401F077
:1044D300A3E034002274F41203A574EB1208DA7E0D
:1044E300007F00A818A919880889097808120864A8
:1044F3007508028E0978081208647C007D007A42F0
:104503007B00120F857404120826E9706E8E0880F2
:104513005874021208C2880A890B780A1208647553
:104523000A13750B00780A120864E50875F013A4E2
:10453300F8AAF075F013E5091244C0120F8574044C
:10454300120826E9701B7403120AE6AA82AB83746D
:1045530002120AE6E0F9121711E970050EEE700176
:104563000F0508E50870020509851882851983126D
:104573004350C3E50898E509994096EEFAEFFB74BA
:10458300150230CB74F61203A58C828D83A3A3127C
:1045930047B5F0EA2417F582E43BF583E0C0E01267
:1045A3004785D0E0F012476512435012476F124718
:1045B300B5A3F0A3F0EA241FF582E43BF583123A96
:1045C300E6EC124E333DF583EEF0A3EFF0EA125C16
:1045D300463BF583124796A3A3A3A3A3A3EEF0A39D
:1045E300EF12592CFE8C828D831247DF74035EFE1B
:1045F300C39403400302474CEE600574026E707966
:104603008C828D83E0540CFE740C6E70030246B9E9
:10461300E0A2E4400D88828983E08C828D83A3121B
:1046230047E774086E60030246B91247777401F0D6
:104633008A828B83A3A3A3A3A312580070148C8232
:104643008D83E0440C1247BFA3A3124796EEF0A359
:10465300EFF08C828D83E0A2E4401E1247A4124740
:10466300D05001091247A4A3A31247D050010988CF
:1046730082898312478D1247DF88828983E0C0E0F5
:10468300EC12475F3DF583D0E01247DF8C828D83C8
:10469300E0A2E7507888828983E0FE8C828D8312C2
:1046A30047E774FC5E700C8C828D83A3E054036433
:1046B30003701B02474C124777E4F0740C6E6003DF
:1046C3000246331247A41247D250870980848C8252
:1046D3008D83A3E05403603888828983E0C0E0ECD3
:1046E3001247593DF583D0E01247E88C828D83E071
:1046F30054036402701A88828983E0C0E0EC2414B6
:10470300F582E43DF583D0E01247E88003A3E4F0AB
:10471300EC1240D93D125DEBEC2410FEE43DFF1298
:104723004765E0F5088E828F83E0C3982508F50876
:10473300F0EA2417125D9BC39508C0E012476FD0BF
:10474300E012592CC39508500A12476FE4F0124740
:1047530085E4F00247F92413F582E4222411F5825B
:10476300E422EA241DF582E43BF58322EC125C4645
:104773003DF58322EC12477F3DF58322240CF5821D
:10478300E422EC1240E93DF58322E08C828D83A381
:10479300A3A322E0FEA3E0FF8C828D83A3A3A3A3A4
:1047A3002288828983E0F508A3E0FFE5088C828DE7
:1047B3008322E4F08C828D83A3A3A3221247C7A391
:1047C300A3A3A322F08A828B83A3A3A322A3A3A3DD
:1047D300A3A3A3F0A3EFF0E82402F8221247EFA863
:1047E30082A98322A31247EF08A98322125AB5A3F1
:1047F3002274021208267F020205CD74F41203A567
:1048030074F31208DA8A0A8B0BECFEEDFF8E828FAB
:1048130083E0540CF508E0A2E75006E508D2E7F57B
:1048230008E508D2E1F5081258007006E508D2E45D
:10483300F508E0A2E55006E508D2E5F5087C087D19
:10484300007900AA18AB19120E597402120AE6E590
:104853000812492BC0E07403120AE6D0E0124E8915
:10486300E50AF0A3E50BF07405120AE6125E2612C0
:1048730017E9740C120AE6E070787408120AE6125B
:10488300563B125D5838126211C0E07408120AE6F2
:1048930012491FD0E01260DBC0E07408120AE6126E
:1048A3004913D0E0F07408120AE6125E1E124902A0
:1048B300124EBE124E702411125139C0E01248FA42
:1048C300D0E0F0EE2414125139C0E07408120AE665
:1048D30012563B2435F582E438F583D0E0124E605E
:1048E300C0E07408120AE6124E1DD0E0125E2812D0
:1048F30017EF740D0230CBE8124DC739F58322123E
:104903005627E8242AF582E439F583EAF0A3EB225B
:104913001260D12427F582E438F583221260D12472
:1049230026F582E438F58322126206E02274F71238
:1049330003A57E008A828B83A3A3A3A3A3A3A3A31C
:10494300A3E0640460030249DC1256BCE060030286
:1049530049DC1249E03B1256A1607E88828983E0DC
:1049630054037075E8240C125AD0FA8C828D83A3F9
:10497300A3E0FBA3E0CB12475F3BF583E06A7059EA
:1049830088828983A3A3A3A3A31249EBE06A7003DC
:10499300A3E06B7044888289831249EBA3A3125A64
:1049A300E524061251396A7003A3E06B702B8882E9
:1049B3008983A3A3E0F88C828D83A3A3E0F9A3E00A
:1049C300F5838982A3A3E068600D8C828D831252E4
:1049D300E6540C640470027E01EEF9801AEA12496F
:1049E300E522240FF582E422A3A3A3A312562D8C60
:1049F300828D83221208267F010205CD74F61203ED
:104A0300A574FC1208DAEAFEEBFFECFAEDFB8A82EE
:104A13008B83A3E0540360169010441256A360598D
:104A23007900EEFCEFFD1270A2121ED8804B8518A0
:104A330082851983EEF0A3EFF07402120AE6124E98
:104A4300C7AC18AD197A4D7B171219458A088B0923
:104A5300A808A909E849602188828983A3A3A3A39D
:104A6300A3A3A3A3A37406F07A00888289831256B2
:104A73003B126067E0F91218AF74040247F674F250
:104A83001203A574F31208DAEAFEEBFF8E828F831A
:104A9300A3A3A3A3A3A3A3A3A3A3E0F50A90126DC7
:104AA300E0700579BA024DC2750801750900750CED
:104AB30000750D007C087D007900AA18AB19120E51
:104AC300597405120AE67401124E9C540460127460
:104AD30002120AE6E0D2E6124E9C540870037508EF
:104AE30003E05410600674404508F508E05408607C
:104AF300227402120AE6E044C0124E9C5420600A5B
:104B03007403120AE6E0D2E080087403120AE6E0B6
:104B1300D2E1F0EE2415125139124E0570037401DF
:104B230069700674084508F5088E828F83A3A3A3D2
:104B3300A3A3A3A3A3E0701612199985188285195C
:104B430083124EC77402120AE6E0D2E2802C640F8D
:104B530070107402120AE6124EA474044508F50894
:104B6300807B8E828F83A3A3A3A3A3A3A3A3E064C9
:104B7300028E828F837006122E8EF08060A3A3A311
:104B8300A3A3A3A3A3E06403700DAC18AD19EEFABD
:104B9300EFFB12178380468E828F83A3A3A3A3A365
:104BA300A3A3A3E0640170359010CEE060107402FB
:104BB300120AE6124EA4750910750AFF80187402D2
:104BC300120AE6E0440C124E8974FDF0A374FFF060
:104BD30074044508F5088E828F83124E11EE241556
:104BE300125139A2E0503F7402120AE6E0540C70ED
:104BF3001B8E828F831256231213CFE9700579BB64
:104C0300024DC27402120AE6E0D2E5F0EE24151258
:104C13005139A2E050107402120AE6E0540C640405
:104C23007004E0D2E5F0EE2411125139C0E07404AF
:104C3300120AE6D0E0125E281217E9740C120AE693
:104C4300E06003024DBB7408120AE6124E39E50810
:104C5300F0A3E509F0EE2418125139C0E0124DE932
:104C6300D0E0124E4AE0C0E07408120AE612563B46
:104C730012475938F583D0E0124EBE64017011908B
:104C830010CEE0C0E07408120AE6124E29D0E0F01C
:104C93007408120AE6124E4524171239EDE8124D34
:104CA300E0EA124E84EE2415FAE43FFB8A828B83FA
:104CB300123ACFE8124DD7ECF0A3ED124E55E0C0F7
:104CC300E0124DCDD0E0124E95124E0570037401E3
:104CD3006970137408120AE6125685FAEE241D123F
:104CE3005139F91215FD8E828F83A3A3A3A3A3A326
:104CF300A3A3A3E0C0E07408120AE612491FD0E0A0
:104D0300F07408120AE6124913E50AF07408120A4D
:104D1300E612552F2428F582E439F583E50CF0A338
:104D2300E50D124E68FAA3E0FBE8242A124E77241D
:104D33000F125139124E702417125139C0E0E82472
:104D430033F582E439F583D0E0F0124DF3C0E0741B
:104D530008120AE6124E1DD0E0F0EE241A12513961
:104D6300C0E07408120AE612563B124DC738F583A9
:104D7300D0E0124E601227BB1208601263E6123AAB
:104D8300CF740B120AE61261AEFAA3E0FB120E4DCA
:104D93007403120826EE2415125139544060129000
:104DA300105E1256A3600AAA18AB191270A2121E43
:104DB300D8AA18AB191217EF740C120AE6E0F974AB
:104DC3000D02281E2432F582E422E82420F582E431
:104DD30039F58322241EF582E439F58322241CF558
:104DE30082E439F58322E82412F582E439F583223B
:104DF300EE241B124DFD22EE240FF582E43FF583D2
:104E0300E0225480F8A3E05401F974806822124E22
:104E13001522E0F50CA3E0F50D221260D12434F540
:104E230082E438F583221260D1124E3338F583229F
:104E33002415F582E4221255331249E539F583220C
:104E4300F583124354EE22F0EE2419F582E43FF584
:104E53008322F0EE241CF582E43FF58322F0EE2456
:104E630013124DFD22F0EE240D124DFD22FAA3E0A4
:104E7300FBE8242CF582E439F583EAF0A3EBF0EEAA
:104E830022F0A3E4F022124E8D22F08518828519B8
:104E93008322F08A828B83E022F0EE2415124DFDEB
:104EA30022E0D2E3126583124EAE22851882851961
:104EB30083E8F0A3E9F022E8F0A3E91260BBE02263
:104EC3008E828F83EAF0A3EBF02274F71203A57EA0
:104ED300638A828B83E0600C7905121879E9F87490
:104EE30056C398FE901076E0600CF9121879E9F831
:104EF300EEC39824F2FE0249DC74F61203A574FE95
:104F03001208DA851882851983124EC7E9FEECFA76
:104F1300EDFB9003041256A36035A818A91988085D
:104F2300890978081208647D01740E120AE6E0FC10
:104F3300EEF9900304126083121ED874021208263D
:104F43008B09EA450960047900800679B280027909
:104F5300B60247F474F71203A5E9FE90103A12560D
:104F6300A3601F7409120AE6E0F5087808120868BE
:104F7300EEF990103A126083121ED87401120826BB
:104F8300800279B60249FA74F71203A58908ECFE88
:104F9300EDFF79B5E508245E601F14600624F86010
:104FA30033803C9003061243606034900306126022
:104FB30083121ED8124EC3802490103C123ACFECB9
:104FC3004D601CEEFCEFFD90103C126083121ED866
:104FD300E9F9800B9010381261C2121003790002B4
:104FE30049FA74F71203A5E9FE79B574AB6E700B39
:104FF30090103812562312100379000249FA74F202
:105003001203A58A088B09ECFEEDFF750A019010C7
:105013007EE065087004A3E0650970141219938A91
:10502300088B09AC08AD09EEFAEFFB121003802AD6
:1050330012199F8A0C8B0DE508650C7004E5096550
:105043000D7009EEFAEFFB1219A5800EEEFCEFFDD1
:10505300AA08AB091214F5E9F50AA90A0228217472
:10506300F21203A5EAFEEBFF8C088D09750A011203
:1050730019938A0C8B0DAC0CAD0DEEFAEFFB120FEE
:10508300FDE96401700B90107E1250A4125DED8057
:105093000EAC08AD09EEFAEFFB1214FBE9F50A803A
:1050A300B91250A82212658A850882850983227461
:1050B300F61203A5EAFEEBFF7A0D7B00120EFBEA64
:1050C3004B6065EE24241265AAF0EE24251265AA2E
:1050D300A31251521265B0A3A312641612513DF0EC
:1050E300EE242A12514612521B242C1251461252FC
:1050F30019242EF582E43FF58312513DA3A3A3A304
:10510300A3F0EE2433125139C0E012512ED0E01235
:105113006215125149A3A3A3125219243212513911
:10512300C0E01256BCD0E0F00247F9EA12619E3BA0
:10513300F58322EE240C124DFD22E08A828B83A399
:10514300A3A322124DFDF8A3E0F98A828B8322F0F8
:1051530012515722EE2426F582E43FF5832274F49C
:105163001203A574FE1208DAECFEEDFFEE2416120C
:10517300513964057010EE2406FCE43FFD12177DDF
:10518300E9700302520EAC18AD191264E01213D584
:105193008518828519831256A3606C8E828F83E0F3
:1051A30064017059E875F009A4F8AAF075F009E9EB
:1051B300A42AF974BA28F874FD39F9E8FAE9FB8AE4
:1051C300828B837808120A9BEE125213120A5D40F7
:1051D30028851882851983124E451252DB12521FFD
:1051E300125213120A9B90811078081209F38A82D3
:1051F3008B837808120A7D800A79A28010EE240F2F
:10520300125DE77900800679A1800279C80230C96E
:1052130012667B780822A3A3A3A3A3A3124EB4EE22
:105223002274F01203A58A088B09ECFEEDFF1252DB
:10523300DAE4F0A3F09080A0780C120A9B12667651
:10524300780C12091B70030252D2EE240E1251394C
:105253006401703678B3901075E0702A9010A7E05F
:1052630064017022EE2411125139F91218618A086F
:105273008B09A808A909EE240F125DE7E849600429
:105283007800800278A1880A8048E0701712178F8F
:10529300E9F50A603D8E828F83A3A31252E654037D
:1052A300700E802E6402701512178FE9F50A6022C2
:1052B300EEFCEFFDAA08AB091213F98008E06403C2
:1052C300700812178FE9F50A8008750AA180037523
:1052D3000AA3A90A023C35EE1249E53FF583228A67
:1052E300828B83A3A3125E542274F01203A574F578
:1052F3001208DAEAFEEBFFEE240AF508E43F85081C
:1053030082F58312551F1254F374031208D28E824E
:105313008F8312562312177DE970030253DB740146
:105323001208D274031208CA1213D57401120AE6C2
:105333001256A370030253DBE875F009A4F8AAF030
:1053430075F009E9A42AF974B628F874FD39F9E867
:10535300FCE9FD1268A4E4F004120AE6124350E5E6
:10536300081249E13509125DEB8C828D83120AC361
:105373001254FF120AB79081107808120A9B8C828C
:105383008D837808120A198C828D837808120A9B00
:105393009080A8780C120A9B7808790C120336E5E2
:1053A3000C450D450E450F702F7401120AE6125578
:1053B3002F75F009A4F8AAF075F009E9A42AF97485
:1053C300BE28F58274FD39F5837401F07A007B08F9
:1053D300900F13E0F9120EAD125507E02406FCA35B
:1053E300E03400FD8E828F8312562312177D8508C9
:1053F300828509831256987052125659120FFDE98D
:10540300701D1219938A088B09AC08AD09901038E6
:10541300125623120FFDE97006121801E9602C8E53
:10542300828F83123AC58E828F831256231213FF03
:10543300E960138E828F83A3A31256331249E13896
:10544300F583E4F0A3F012590FE4F012568A6003D7
:105453000254E68E828F83A3A3A3A3A3A312551B97
:10546300901075E070729010A7E06401706A750A7D
:105473003A750B00780A12086474021208C2880A8B
:10548300890B780A1208647C017D007A007B001284
:105493001AB97404120826E9703B1268A474011245
:1054A3004E89E0C0E0E5082411126900D0E0F01253
:1054B30054EB743A124E84901060120AC31254FFD4
:1054C300120AB79081107808120A9B90106078082E
:1054D300120A1980031254F312568A7006125C4C96
:1054E30074A1F0740B023C32E508240F123E3822FB
:1054F300E508240F123E38E4F0A3F022E508241255
:10550300123E3822EE240A1255128882F58322F8BD
:10551300E43FF98808890922A3A3A3A312552322F0
:10552300E0F508A3E0F509228C828D83125533221E
:1055330012658AE82274F61203A5EAFEEBFFEE2455
:105543000A1255127A187B00120EFB850882850910
:1055530083EAF0A3EB1256B7E84970030255F9EE5C
:10556300FAEFFB12179B12568A6074125677640186
:105573008E828F83A3A3A3A3A3A370071256497498
:105583000E80201256A3700F125659120FFDE970A8
:1055930006121801E9600712563F740D8005125672
:1055A3003F740512621554036401700712560074A8
:1055B30005800B901076E0C0E0125600D0E0125642
:1055C300A8F5838882A3E0F91218798508828509F2
:1055D3008312563B2417F582E438F583E9801A8554
:1055E3000882850983125623120F018508828509D3
:1055F30083E4F0A3800312606EF00247F98E828F7A
:1056030083A3A3A3A3A3A3A3A312561022A3A3120A
:105613005E59A3228E828F83A3A3A3A3A3A3A3A3D1
:1056230012562D22A3A3A3A3A3A3E0FAA3E0FB2274
:10563300A3A3A3A3A3A3A3A31260D1228E828F83C8
:10564300A3A3A3A3A3A3A3A3A3A31260D12416F587
:1056530082E438F58322901038123AD38E828F83F6
:10566300A3A3A3A3A3A3A3A3A3A3E02406FAA3E052
:105673003400FB228E828F83A3A3A3A3A3A3A3A39C
:10568300A3A3125921E0228E828F83A3A3A3A3A3F2
:10569300A3A3A3A3A31260D1240FF582E438F58357
:1056A30012553349221256AC221256B02212668882
:1056B300F8A3E0221256ACF922EA12477F3BF583A6
:1056C3002274F11203A58A0A8B0B8C088D097A18B0
:1056D3007B00120EFB8A0C8B0DAE0CAF0DEE4F70E0
:1056E300030257F91219998A0C8B0DA80CA90DE521
:1056F300082415126671687003A3E0698E828F8394
:105703007004740280027401F0E508240DF8E43596
:1057130009F988828983E0FAC3E49AFA95E0FBE504
:10572300081240D93509124134FB8E828F83A3A31B
:10573300A3A3125D678E828F83A3A3F0EEFAEFFB20
:1057430012182B85088285098312580070098E82EE
:105753008F83A374058006901076123C08F0EE2424
:1057630017F8E43FF9880C890D8E828F83A3E0F943
:10577300121879E9850C82850D83F0EE2416F8E47E
:105783003FF9E508240EFAE43509FB888289831280
:10579300609CE5082410FAE43509FB850C82850D2D
:1057A30083E0FC88828983E0F88A828B83E0C39854
:1057B300C39CF8125806F0EEFCEFFDAA0AAB0B12DD
:1057C3001795E9F5088E828F83E064027011121930
:1057D300938A0A8B0BAC0AAD0B1264E0121003E53B
:1057E30008700AEEFAEFFB121837E9F508EEFAEF44
:1057F300FB120F018003750810A9088011E0540300
:1058030064012212580A2212620BA3A3A3227F0768
:105813000205CD79010207F174F41203A5EAFEEB48
:10582300FF8E828F831256332424F582E438F58366
:10583300125800702A12567770251258FCE064053E
:10584300701D1258FCA3E0F87401686005740668C3
:10585300700712590F7402800512590F7403F01266
:105863005507126083E4F0EE2408F8E43F1258DB96
:105873002431F582E43AF583E0C0E01258E6D0E043
:1058830012592CFAA3E0CA242EF582E43AF583E0F8
:10589300C0E01258E6A3D0E0125930C812619A381A
:1058A300F5831250A41258F6125DED1219938A0A69
:1058B3008B0BAC0AAD0B850882850983E0240612A5
:1058C3005D6012100385088285098312562312181E
:1058D30037126140F00230CEF988828983E0FAA35F
:1058E300E0CA228508828509831258F02212605E7D
:1058F300A3A3221258F0A3A3228E828F83A3A3A370
:10590300A3A3A3A3A31261B2125C5A228E828F8334
:10591300A3A3A3A3A3A3A3A3A3A312592122126006
:10592300D6C81240DD38F58322125D7322125D73EF
:10593300F8A3E022025816C082C08390105474A1C9
:10594300F0A37417F090105674ADF0A37417F09091
:10595300105874B3F0A37417F090105A74A7F0A3FF
:105963007417F0025C1A74F41203A5EA2408FCE429
:105973003BFD12552B2424125AD0FE74035EF50905
:1059830012619939124E4388828983F0A3A882A9B0
:1059930083E5096009740265096003025A35740CD2
:1059A3005EF5086017740865086011740465087073
:1059B30013740265097005EEA2E4402C125AEB241D
:1059C30027125B30740C65087018125ADD242812F4
:1059D3005B15FCA3E0CC2428F582E43CF583A312F9
:1059E3005B36740265097005EEA2E44045125ADD88
:1059F300242A125B15FFA3E0CF125ABBA3125B3616
:105A0300125AE1242C125B45242CF582E43CF583E5
:105A1300A3125B36E508601274086508600C740C09
:105A230065086006740465087008125AEB24261290
:105A33005B30125AEB125AC47015EEA2E1401012F9
:105A43005AEB241EF582E43CF583E054806008128F
:105A53005AFD125AD8801A90102EE0C0E0125AFD57
:105A6300D0E0F090102E125AD890102EE004125A63
:105A7300B5A3A882A983EEA2E75034125ADD2425E8
:105A8300125B45125AC46027125AEB2434125B305E
:105A9300EEA2E1501A8A828B83A3A3A3A3A3A3A399
:105AA300A31258E02435F582E43AF583125AD8025A
:105AB30030CEF08882898322242AF582E43FF5835D
:105AC300222425F582E43CF583E0540322F582E4A5
:105AD30039F583E022125B2AF022EA2408FC8C8247
:105AE3008D83E0FFA3E0CF228A828B83A3A3A3A3AA
:105AF300A3A3A3A3E0FCA3E0CC228A828B83A3A36A
:105B0300A3A3A3A3A3A3E0FCA3E0CC124DC73CF53E
:105B13008322F582E43FF583125B2AF0A3A882A9CE
:105B2300838C828D83E022E08882898322F582E45C
:105B33003CF583125B3A22E088828983F0A308A9AB
